{
  "contractName": "QuestionStore",
  "abi": [
    {
      "constant": true,
      "inputs": [
        {
          "name": "",
          "type": "address"
        }
      ],
      "name": "askedQuestionsMap",
      "outputs": [
        {
          "name": "",
          "type": "bool"
        }
      ],
      "payable": false,
      "stateMutability": "view",
      "type": "function"
    },
    {
      "constant": true,
      "inputs": [
        {
          "name": "",
          "type": "uint256"
        }
      ],
      "name": "askedQuestions",
      "outputs": [
        {
          "name": "",
          "type": "address"
        }
      ],
      "payable": false,
      "stateMutability": "view",
      "type": "function"
    },
    {
      "constant": true,
      "inputs": [
        {
          "name": "",
          "type": "address"
        }
      ],
      "name": "upVoterRating",
      "outputs": [
        {
          "name": "",
          "type": "uint256"
        }
      ],
      "payable": false,
      "stateMutability": "view",
      "type": "function"
    },
    {
      "constant": true,
      "inputs": [
        {
          "name": "voter",
          "type": "address"
        }
      ],
      "name": "getVoterRating",
      "outputs": [
        {
          "name": "",
          "type": "uint256"
        }
      ],
      "payable": false,
      "stateMutability": "view",
      "type": "function"
    },
    {
      "constant": false,
      "inputs": [
        {
          "name": "voter",
          "type": "address"
        },
        {
          "name": "val",
          "type": "uint256"
        }
      ],
      "name": "setVoterRating",
      "outputs": [],
      "payable": false,
      "stateMutability": "nonpayable",
      "type": "function"
    },
    {
      "constant": false,
      "inputs": [
        {
          "name": "Title",
          "type": "string"
        },
        {
          "name": "Tag",
          "type": "string"
        },
        {
          "name": "QuestionHash",
          "type": "string"
        },
        {
          "name": "Target",
          "type": "uint256"
        },
        {
          "name": "Deadline",
          "type": "uint256"
        }
      ],
      "name": "askQuestion",
      "outputs": [],
      "payable": true,
      "stateMutability": "payable",
      "type": "function"
    },
    {
      "constant": true,
      "inputs": [],
      "name": "getDeployedQuestions",
      "outputs": [
        {
          "name": "",
          "type": "address[]"
        }
      ],
      "payable": false,
      "stateMutability": "view",
      "type": "function"
    }
  ],
  "bytecode": "0x608060405234801561001057600080fd5b50612cbf806100206000396000f3fe60806040526004361061006f5760003560e01c806355e2e50a1161004e57806355e2e50a146101a05780636c64aa941461039d578063c20c296714610406578063f1bf9b99146104815761006f565b80620e078f1461007457806349ab95ba146100e05780634d0f7a7414610145575b600080fd5b34801561008057600080fd5b506100896104e6565b6040518080602001828103825283818151815260200191508051906020019060200280838360005b838110156100cc5780820151818401526020810190506100b1565b505050509050019250505060405180910390f35b3480156100ec57600080fd5b5061012f6004803603602081101561010357600080fd5b81019080803573ffffffffffffffffffffffffffffffffffffffff169060200190929190505050610574565b6040518082815260200191505060405180910390f35b34801561015157600080fd5b5061019e6004803603604081101561016857600080fd5b81019080803573ffffffffffffffffffffffffffffffffffffffff169060200190929190803590602001909291905050506105bc565b005b61039b600480360360a08110156101b657600080fd5b81019080803590602001906401000000008111156101d357600080fd5b8201836020820111156101e557600080fd5b8035906020019184600183028401116401000000008311171561020757600080fd5b91908080601f016020809104026020016040519081016040528093929190818152602001838380828437600081840152601f19601f8201169050808301925050505050505091929192908035906020019064010000000081111561026a57600080fd5b82018360208201111561027c57600080fd5b8035906020019184600183028401116401000000008311171561029e57600080fd5b91908080601f016020809104026020016040519081016040528093929190818152602001838380828437600081840152601f19601f8201169050808301925050505050505091929192908035906020019064010000000081111561030157600080fd5b82018360208201111561031357600080fd5b8035906020019184600183028401116401000000008311171561033557600080fd5b91908080601f016020809104026020016040519081016040528093929190818152602001838380828437600081840152601f19601f8201169050808301925050505050505091929192908035906020019092919080359060200190929190505050610659565b005b3480156103a957600080fd5b506103ec600480360360208110156103c057600080fd5b81019080803573ffffffffffffffffffffffffffffffffffffffff1690602001909291905050506108dc565b604051808215151515815260200191505060405180910390f35b34801561041257600080fd5b5061043f6004803603602081101561042957600080fd5b81019080803590602001909291905050506108fc565b604051808273ffffffffffffffffffffffffffffffffffffffff1673ffffffffffffffffffffffffffffffffffffffff16815260200191505060405180910390f35b34801561048d57600080fd5b506104d0600480360360208110156104a457600080fd5b81019080803573ffffffffffffffffffffffffffffffffffffffff169060200190929190505050610938565b6040518082815260200191505060405180910390f35b6060600180548060200260200160405190810160405280929190818152602001828054801561056a57602002820191906000526020600020905b8160009054906101000a900473ffffffffffffffffffffffffffffffffffffffff1673ffffffffffffffffffffffffffffffffffffffff1681526020019060010190808311610520575b5050505050905090565b60008060008373ffffffffffffffffffffffffffffffffffffffff1673ffffffffffffffffffffffffffffffffffffffff168152602001908152602001600020549050919050565b600260003373ffffffffffffffffffffffffffffffffffffffff1673ffffffffffffffffffffffffffffffffffffffff16815260200190815260200160002060009054906101000a900460ff1661061257600080fd5b806000808473ffffffffffffffffffffffffffffffffffffffff1673ffffffffffffffffffffffffffffffffffffffff168152602001908152602001600020819055505050565b60003486863387878760405161066e90610950565b8080602001806020018773ffffffffffffffffffffffffffffffffffffffff1673ffffffffffffffffffffffffffffffffffffffff1681526020018060200186815260200185815260200184810384528a818151815260200191508051906020019080838360005b838110156106f15780820151818401526020810190506106d6565b50505050905090810190601f16801561071e5780820380516001836020036101000a031916815260200191505b50848103835289818151815260200191508051906020019080838360005b8381101561075757808201518184015260208101905061073c565b50505050905090810190601f1680156107845780820380516001836020036101000a031916815260200191505b50848103825287818151815260200191508051906020019080838360005b838110156107bd5780820151818401526020810190506107a2565b50505050905090810190601f1680156107ea5780820380516001836020036101000a031916815260200191505b5099505050505050505050506040518091039082f080158015610811573d6000803e3d6000fd5b509050905060018190806001815401808255809150509060018203906000526020600020016000909192909190916101000a81548173ffffffffffffffffffffffffffffffffffffffff021916908373ffffffffffffffffffffffffffffffffffffffff160217905550506001600260008373ffffffffffffffffffffffffffffffffffffffff1673ffffffffffffffffffffffffffffffffffffffff16815260200190815260200160002060006101000a81548160ff021916908315150217905550505050505050565b60026020528060005260406000206000915054906101000a900460ff1681565b6001818154811061090957fe5b906000526020600020016000915054906101000a900473ffffffffffffffffffffffffffffffffffffffff1681565b60006020528060005260406000206000915090505481565b612335806200095f8339019056fe60806040526040516200233538038062002335833981018060405260c08110156200002957600080fd5b8101908080516401000000008111156200004257600080fd5b828101905060208101848111156200005957600080fd5b81518560018202830111640100000000821117156200007757600080fd5b505092919060200180516401000000008111156200009457600080fd5b82810190506020810184811115620000ab57600080fd5b8151856001820283011164010000000082111715620000c957600080fd5b5050929190602001805190602001909291908051640100000000811115620000f057600080fd5b828101905060208101848111156200010757600080fd5b81518560018202830111640100000000821117156200012557600080fd5b5050929190602001805190602001909291908051906020019092919050505085600090805190602001906200015c929190620002bd565b50846001908051906020019062000175929190620002bd565b5083600260006101000a81548173ffffffffffffffffffffffffffffffffffffffff021916908373ffffffffffffffffffffffffffffffffffffffff1602179055508260039080519060200190620001cf929190620002bd565b503073ffffffffffffffffffffffffffffffffffffffff1631600481905550816005819055508060068190555033600760006101000a81548173ffffffffffffffffffffffffffffffffffffffff021916908373ffffffffffffffffffffffffffffffffffffffff1602179055507fffffffffffffffffffffffffffffffffffffffffffffffffffffffffffffffff600881905550600060098190555042600b819055506000600c60006101000a81548160ff0219169083151502179055506000600c60016101000a81548160ff0219169083151502179055506000600d819055505050505050506200036c565b828054600181600116156101000203166002900490600052602060002090601f016020900481019282601f106200030057805160ff191683800117855562000331565b8280016001018555821562000331579182015b828111156200033057825182559160200191906001019062000313565b5b50905062000340919062000344565b5090565b6200036991905b80821115620003655760008160009055506001016200034b565b5090565b90565b611fb9806200037c6000396000f3fe608060405234801561001057600080fd5b506004361061012c5760003560e01c806378e97925116100ad578063d4b8399211610071578063d4b8399214610602578063ec07310d14610620578063ec859db514610642578063f8dcf94114610670578063fa391c641461067a5761012c565b806378e97925146104a35780638da5cb5b146104c15780638ee640a01461050b578063b2a4a50e14610529578063c0957e45146105e45761012c565b80633750963f116100f45780633750963f146102c45780634a79d50c1461034757806351f91066146103ca5780635362332f1461044d578063671f30a61461046b5761012c565b8063018c0277146101315780630bed05021461017b57806317599cc514610199578063228cb7331461028857806329dcb0cf146102a6575b600080fd5b61013961069c565b604051808273ffffffffffffffffffffffffffffffffffffffff1673ffffffffffffffffffffffffffffffffffffffff16815260200191505060405180910390f35b6101836106c2565b6040518082815260200191505060405180910390f35b6101c5600480360360208110156101af57600080fd5b81019080803590602001909291905050506106c8565b604051808681526020018573ffffffffffffffffffffffffffffffffffffffff1673ffffffffffffffffffffffffffffffffffffffff16815260200180602001848152602001838152602001828103825285818151815260200191508051906020019080838360005b8381101561024957808201518184015260208101905061022e565b50505050905090810190601f1680156102765780820380516001836020036101000a031916815260200191505b50965050505050505060405180910390f35b6102906107c3565b6040518082815260200191505060405180910390f35b6102ae6107c9565b6040518082815260200191505060405180910390f35b6102cc6107cf565b6040518080602001828103825283818151815260200191508051906020019080838360005b8381101561030c5780820151818401526020810190506102f1565b50505050905090810190601f1680156103395780820380516001836020036101000a031916815260200191505b509250505060405180910390f35b61034f61086d565b6040518080602001828103825283818151815260200191508051906020019080838360005b8381101561038f578082015181840152602081019050610374565b50505050905090810190601f1680156103bc5780820380516001836020036101000a031916815260200191505b509250505060405180910390f35b6103d261090b565b6040518080602001828103825283818151815260200191508051906020019080838360005b838110156104125780820151818401526020810190506103f7565b50505050905090810190601f16801561043f5780820380516001836020036101000a031916815260200191505b509250505060405180910390f35b6104556109a9565b6040518082815260200191505060405180910390f35b6104a16004803603604081101561048157600080fd5b8101908080359060200190929190803590602001909291905050506109af565b005b6104ab6115d5565b6040518082815260200191505060405180910390f35b6104c96115db565b604051808273ffffffffffffffffffffffffffffffffffffffff1673ffffffffffffffffffffffffffffffffffffffff16815260200191505060405180910390f35b610513611601565b6040518082815260200191505060405180910390f35b6105e26004803603602081101561053f57600080fd5b810190808035906020019064010000000081111561055c57600080fd5b82018360208201111561056e57600080fd5b8035906020019184600183028401116401000000008311171561059057600080fd5b91908080601f016020809104026020016040519081016040528093929190818152602001838380828437600081840152601f19601f820116905080830192505050505050509192919290505050611607565b005b6105ec611787565b6040518082815260200191505060405180910390f35b61060a61178d565b6040518082815260200191505060405180910390f35b610628611793565b604051808215151515815260200191505060405180910390f35b61066e6004803603602081101561065857600080fd5b81019080803590602001909291905050506117a6565b005b610678611c51565b005b610682611dbc565b604051808215151515815260200191505060405180910390f35b600260009054906101000a900473ffffffffffffffffffffffffffffffffffffffff1681565b600d5481565b600f81815481106106d557fe5b90600052602060002090600602016000915090508060010154908060020160009054906101000a900473ffffffffffffffffffffffffffffffffffffffff1690806003018054600181600116156101000203166002900480601f0160208091040260200160405190810160405280929190818152602001828054600181600116156101000203166002900480156107ad5780601f10610782576101008083540402835291602001916107ad565b820191906000526020600020905b81548152906001019060200180831161079057829003601f168201915b5050505050908060040154908060050154905085565b60045481565b60065481565b60038054600181600116156101000203166002900480601f0160208091040260200160405190810160405280929190818152602001828054600181600116156101000203166002900480156108655780601f1061083a57610100808354040283529160200191610865565b820191906000526020600020905b81548152906001019060200180831161084857829003601f168201915b505050505081565b60008054600181600116156101000203166002900480601f0160208091040260200160405190810160405280929190818152602001828054600181600116156101000203166002900480156109035780601f106108d857610100808354040283529160200191610903565b820191906000526020600020905b8154815290600101906020018083116108e657829003601f168201915b505050505081565b60018054600181600116156101000203166002900480601f0160208091040260200160405190810160405280929190818152602001828054600181600116156101000203166002900480156109a15780601f10610976576101008083540402835291602001916109a1565b820191906000526020600020905b81548152906001019060200180831161098457829003601f168201915b505050505081565b60085481565b600c60019054906101000a900460ff161580156109ce5750600d548211155b6109d757600080fd5b7fffffffffffffffffffffffffffffffffffffffffffffffffffffffffffffffff60085414610a0557600080fd5b600260009054906101000a900473ffffffffffffffffffffffffffffffffffffffff1673ffffffffffffffffffffffffffffffffffffffff163373ffffffffffffffffffffffffffffffffffffffff16148015610a8d57507ffffffffffffffffffffffffffffffffffffffffffffffffffffffffffffffffa81138015610a8c5750600681125b5b80610ac057506001620d2f00600a54420381610aa557fe5b04118015610abf5750600c60009054906101000a900460ff165b5b610ac957600080fd5b6000600260009054906101000a900473ffffffffffffffffffffffffffffffffffffffff1673ffffffffffffffffffffffffffffffffffffffff163373ffffffffffffffffffffffffffffffffffffffff161415610bb75781600981905550600260009054906101000a900473ffffffffffffffffffffffffffffffffffffffff1673ffffffffffffffffffffffffffffffffffffffff166108fc60033073ffffffffffffffffffffffffffffffffffffffff163181610b8557fe5b049081150290604051600060405180830381858888f19350505050158015610bb1573d6000803e3d6000fd5b50610bc0565b60006009819055505b600554600f8481548110610bd057fe5b9060005260206000209060060201600101541015610c515760646014600554600f8681548110610bfc57fe5b9060005260206000209060060201600101546005540381610c1957fe5b040260280181610c2557fe5b0490503073ffffffffffffffffffffffffffffffffffffffff1631810290506005600981905550610f1f565b8160098190555060056009541415610c8f57600a60033073ffffffffffffffffffffffffffffffffffffffff16310281610c8757fe5b049050610f1e565b60046009541415610cc657601960083073ffffffffffffffffffffffffffffffffffffffff16310281610cbe57fe5b049050610f1d565b60036009541415610cfd57603260113073ffffffffffffffffffffffffffffffffffffffff16310281610cf557fe5b049050610f1c565b60026009541415610d3457603260093073ffffffffffffffffffffffffffffffffffffffff16310281610d2c57fe5b049050610f1b565b60016009541415610d6b57603260133073ffffffffffffffffffffffffffffffffffffffff16310281610d6357fe5b049050610f1a565b60006009541415610da257600560023073ffffffffffffffffffffffffffffffffffffffff16310281610d9a57fe5b049050610f19565b7fffffffffffffffffffffffffffffffffffffffffffffffffffffffffffffffff6009541415610df8576019600d3073ffffffffffffffffffffffffffffffffffffffff16310281610df057fe5b049050610f18565b7ffffffffffffffffffffffffffffffffffffffffffffffffffffffffffffffffe6009541415610e4e57601960103073ffffffffffffffffffffffffffffffffffffffff16310281610e4657fe5b049050610f17565b7ffffffffffffffffffffffffffffffffffffffffffffffffffffffffffffffffd6009541415610ea457601960133073ffffffffffffffffffffffffffffffffffffffff16310281610e9c57fe5b049050610f16565b7ffffffffffffffffffffffffffffffffffffffffffffffffffffffffffffffffc6009541415610efa57601960163073ffffffffffffffffffffffffffffffffffffffff16310281610ef257fe5b049050610f15565b3073ffffffffffffffffffffffffffffffffffffffff163190505b5b5b5b5b5b5b5b5b5b5b82600881905550600f8381548110610f3357fe5b906000526020600020906006020160020160009054906101000a900473ffffffffffffffffffffffffffffffffffffffff1673ffffffffffffffffffffffffffffffffffffffff166108fc829081150290604051600060405180830381858888f19350505050158015610faa573d6000803e3d6000fd5b507fffffffffffffffffffffffffffffffffffffffffffffffffffffffffffffffff82131561138957600f8381548110610fe057fe5b9060005260206000209060060201600101546001830102600f848154811061100457fe5b90600052602060002090600602016005016000828254019250508190555060008090505b600f848154811061103557fe5b906000526020600020906006020160010154811015611383576000600760009054906101000a900473ffffffffffffffffffffffffffffffffffffffff1673ffffffffffffffffffffffffffffffffffffffff166349ab95ba600f878154811061109b57fe5b906000526020600020906006020160000184815481106110b757fe5b9060005260206000200160009054906101000a900473ffffffffffffffffffffffffffffffffffffffff166040518263ffffffff1660e01b8152600401808273ffffffffffffffffffffffffffffffffffffffff1673ffffffffffffffffffffffffffffffffffffffff16815260200191505060206040518083038186803b15801561114257600080fd5b505afa158015611156573d6000803e3d6000fd5b505050506040513d602081101561116c57600080fd5b810190808051906020019092919050505090506001840181019050600760009054906101000a900473ffffffffffffffffffffffffffffffffffffffff1673ffffffffffffffffffffffffffffffffffffffff16634d0f7a74600f87815481106111d257fe5b906000526020600020906006020160000184815481106111ee57fe5b9060005260206000200160009054906101000a900473ffffffffffffffffffffffffffffffffffffffff16836040518363ffffffff1660e01b8152600401808373ffffffffffffffffffffffffffffffffffffffff1673ffffffffffffffffffffffffffffffffffffffff16815260200182815260200192505050600060405180830381600087803b15801561128357600080fd5b505af1158015611297573d6000803e3d6000fd5b50505050600f85815481106112a857fe5b906000526020600020906006020160000182815481106112c457fe5b9060005260206000200160009054906101000a900473ffffffffffffffffffffffffffffffffffffffff1673ffffffffffffffffffffffffffffffffffffffff166108fc600f878154811061131557fe5b906000526020600020906006020160050154833073ffffffffffffffffffffffffffffffffffffffff1631028161134857fe5b049081150290604051600060405180830381858888f19350505050158015611374573d6000803e3d6000fd5b50508080600101915050611028565b506115d0565b60008090505b600f848154811061139c57fe5b9060005260206000209060060201600101548110156115ce576000600760009054906101000a900473ffffffffffffffffffffffffffffffffffffffff1673ffffffffffffffffffffffffffffffffffffffff166349ab95ba600f878154811061140257fe5b9060005260206000209060060201600001848154811061141e57fe5b9060005260206000200160009054906101000a900473ffffffffffffffffffffffffffffffffffffffff166040518263ffffffff1660e01b8152600401808273ffffffffffffffffffffffffffffffffffffffff1673ffffffffffffffffffffffffffffffffffffffff16815260200191505060206040518083038186803b1580156114a957600080fd5b505afa1580156114bd573d6000803e3d6000fd5b505050506040513d60208110156114d357600080fd5b81019080805190602001909291905050509050600f85815481106114f357fe5b9060005260206000209060060201600001828154811061150f57fe5b9060005260206000200160009054906101000a900473ffffffffffffffffffffffffffffffffffffffff1673ffffffffffffffffffffffffffffffffffffffff166108fc600f878154811061156057fe5b906000526020600020906006020160050154833073ffffffffffffffffffffffffffffffffffffffff1631028161159357fe5b049081150290604051600060405180830381858888f193505050501580156115bf573d6000803e3d6000fd5b5050808060010191505061138f565b505b505050565b600b5481565b600760009054906101000a900473ffffffffffffffffffffffffffffffffffffffff1681565b60095481565b600c60019054906101000a900460ff1615801561164557507fffffffffffffffffffffffffffffffffffffffffffffffffffffffffffffffff600854145b61164e57600080fd5b6060611658611dcf565b6040518060c00160405280838152602001600081526020013373ffffffffffffffffffffffffffffffffffffffff1681526020018481526020016000815260200160008152509050600d60008154809291906001019190505550600f819080600181540180825580915050906001820390600052602060002090600602016000909192909190915060008201518160000190805190602001906116fc929190611e1b565b506020820151816001015560408201518160020160006101000a81548173ffffffffffffffffffffffffffffffffffffffff021916908373ffffffffffffffffffffffffffffffffffffffff160217905550606082015181600301908051906020019061176a929190611ea5565b506080820151816004015560a08201518160050155505050505050565b600a5481565b60055481565b600c60019054906101000a900460ff1681565b600c60019054906101000a900460ff16156117c057600080fd5b600e60003373ffffffffffffffffffffffffffffffffffffffff1673ffffffffffffffffffffffffffffffffffffffff16815260200190815260200160002060009054906101000a900460ff1615801561181c5750600d548111155b61182557600080fd5b600554600f828154811061183557fe5b9060005260206000209060060201600101541061185157600080fd5b6000600760009054906101000a900473ffffffffffffffffffffffffffffffffffffffff1673ffffffffffffffffffffffffffffffffffffffff166349ab95ba336040518263ffffffff1660e01b8152600401808273ffffffffffffffffffffffffffffffffffffffff1673ffffffffffffffffffffffffffffffffffffffff16815260200191505060206040518083038186803b1580156118f257600080fd5b505afa158015611906573d6000803e3d6000fd5b505050506040513d602081101561191c57600080fd5b810190808051906020019092919050505014156119f657600760009054906101000a900473ffffffffffffffffffffffffffffffffffffffff1673ffffffffffffffffffffffffffffffffffffffff16634d0f7a743360646040518363ffffffff1660e01b8152600401808373ffffffffffffffffffffffffffffffffffffffff1673ffffffffffffffffffffffffffffffffffffffff16815260200182815260200192505050600060405180830381600087803b1580156119dd57600080fd5b505af11580156119f1573d6000803e3d6000fd5b505050505b600f8181548110611a0357fe5b9060005260206000209060060201600101600081548092919060010191905055506001600e60003373ffffffffffffffffffffffffffffffffffffffff1673ffffffffffffffffffffffffffffffffffffffff16815260200190815260200160002060006101000a81548160ff021916908315150217905550600f8181548110611a8957fe5b90600052602060002090600602016000013390806001815401808255809150509060018203906000526020600020016000909192909190916101000a81548173ffffffffffffffffffffffffffffffffffffffff021916908373ffffffffffffffffffffffffffffffffffffffff16021790555050600760009054906101000a900473ffffffffffffffffffffffffffffffffffffffff1673ffffffffffffffffffffffffffffffffffffffff166349ab95ba336040518263ffffffff1660e01b8152600401808273ffffffffffffffffffffffffffffffffffffffff1673ffffffffffffffffffffffffffffffffffffffff16815260200191505060206040518083038186803b158015611b9d57600080fd5b505afa158015611bb1573d6000803e3d6000fd5b505050506040513d6020811015611bc757600080fd5b8101908080519060200190929190505050600f8281548110611be557fe5b906000526020600020906006020160050160008282540192505081905550600554600f8281548110611c1357fe5b9060005260206000209060060201600101541415611c4e5742600a819055506001600c60006101000a81548160ff0219169083151502179055505b50565b600c60019054906101000a900460ff16158015611c7b5750600c60009054906101000a900460ff16155b611c8457600080fd5b7fffffffffffffffffffffffffffffffffffffffffffffffffffffffffffffffff600854148015611d025750600260009054906101000a900473ffffffffffffffffffffffffffffffffffffffff1673ffffffffffffffffffffffffffffffffffffffff163373ffffffffffffffffffffffffffffffffffffffff16145b8015611d165750600654600402600b544203115b611d1f57600080fd5b600260009054906101000a900473ffffffffffffffffffffffffffffffffffffffff1673ffffffffffffffffffffffffffffffffffffffff166108fc3073ffffffffffffffffffffffffffffffffffffffff16319081150290604051600060405180830381858888f19350505050158015611d9e573d6000803e3d6000fd5b506001600c60016101000a81548160ff021916908315150217905550565b600c60009054906101000a900460ff1681565b6040518060c001604052806060815260200160008152602001600073ffffffffffffffffffffffffffffffffffffffff1681526020016060815260200160008152602001600081525090565b828054828255906000526020600020908101928215611e94579160200282015b82811115611e935782518260006101000a81548173ffffffffffffffffffffffffffffffffffffffff021916908373ffffffffffffffffffffffffffffffffffffffff16021790555091602001919060010190611e3b565b5b509050611ea19190611f25565b5090565b828054600181600116156101000203166002900490600052602060002090601f016020900481019282601f10611ee657805160ff1916838001178555611f14565b82800160010185558215611f14579182015b82811115611f13578251825591602001919060010190611ef8565b5b509050611f219190611f68565b5090565b611f6591905b80821115611f6157600081816101000a81549073ffffffffffffffffffffffffffffffffffffffff021916905550600101611f2b565b5090565b90565b611f8a91905b80821115611f86576000816000905550600101611f6e565b5090565b9056fea165627a7a72305820c299112c1e9f5615ef10d570c69aaad1f016d44a148e33336a3d05be2b24e5f00029a165627a7a7230582065ec764666828127743ddab76a19adc8217f4378042ee4ad8b7c0f5e8d7dd1920029",
  "source": "pragma solidity ^0.5.8;\n\ncontract QuestionStore {\n    mapping(address => uint) public upVoterRating;\n    Question[] public askedQuestions;\n    mapping(address => bool) public askedQuestionsMap;\n\n    function getVoterRating(address payable voter) public view returns (uint){ \n        return upVoterRating[voter];\n    }\n\n    function setVoterRating(address payable voter, uint val) public { \n        require(askedQuestionsMap[msg.sender]);\n        upVoterRating[voter] = val;\n    }\n\n    function askQuestion(string memory Title, string memory Tag, string memory QuestionHash, uint Target, uint  Deadline) public payable{\n        Question newQuestion = (new Question).value(msg.value)(Title, Tag, msg.sender, QuestionHash, Target, Deadline);\n        askedQuestions.push(newQuestion);\n        askedQuestionsMap[address(newQuestion)] = true;\n    }\n\n    function getDeployedQuestions() public view returns (Question[] memory) {\n        return askedQuestions;\n    }\n}\n\ncontract Question {\n    string public title;\n    string public tag;\n    address payable public questioner;\n    string public questionHash;\n    uint public reward;\n    uint public target;\n    uint public deadline;             // In days\n    QuestionStore public owner;\n    int public answerIndex;\n    int public answerRating;\n    uint public completeTime;\n    uint public startTime;\n    bool public isCompleted;         // Are #upVotes == Target\n    bool public isRetracted;\n    uint public answerCount;\n    \n    mapping(address => bool) upVoteBool;\n    \n    Answer [] public answers;\n    \n    struct Answer{\n        address payable [] upVoters;\n        uint upVoteCount;\n        address payable answerer;\n        string answerHash;\n        int questionerResponse;\n        uint sumVoterRating;\n    }\n\n    constructor (string memory Title, string memory Tag, address payable Questioner, string memory QuestionHash, uint Target, uint  Deadline) public payable{\n        title = Title;\n        tag = Tag;\n        questioner = Questioner;\n        questionHash = QuestionHash;\n        reward = address(this).balance;\n        target = Target;\n        deadline = Deadline; \n        owner = QuestionStore (msg.sender);\n        answerIndex = -1;\n        answerRating = 0;\n        startTime = now;\n        isCompleted = false;\n        isRetracted = false;\n        answerCount = 0;\n    }\n    \n    function answer(string memory hash) public {\n        require(!isRetracted && (answerIndex == -1));\n        \n        address payable [] memory voters;\n        Answer memory newAnswer = Answer({\n            upVoters: voters,\n            upVoteCount: 0, \n            answerer: msg.sender,\n            answerHash: hash,\n            questionerResponse: 0,\n            sumVoterRating: 0\n        });\n        answerCount++;\n        answers.push(newAnswer);\n    }\n    \n    function giveRating(uint index, int rating) public {\n        require((!isRetracted) && (index <= answerCount));\n        require(answerIndex == -1);\n        require(((msg.sender == questioner ) && ((rating > -6) && (rating < 6))) || ( ( ( (now - completeTime)/ 864000) > 1) && isCompleted ) );   // greater than 10 days\n\n\n        \n        uint answererShare;\n        \n        if(msg.sender == questioner){\n            answerRating = rating;\n            questioner.transfer( (address(this).balance) / 3);\n        }\n        \n        else{\n            answerRating = 0;\n        }\n        \n        if (answers[index].upVoteCount < target){\n            answererShare =  ( 40 + ( ( (target - answers[index].upVoteCount ) / target) * 20) ) / 100; \n            answererShare *= (address(this).balance) ;\n            answerRating = 5;\n        }\n        \n        else{\n            answerRating = rating;\n            if(answerRating == 5) { answererShare = ((address(this).balance) * 3/10);}\n            else if (answerRating == 4) {answererShare = ((address(this).balance) * 8/25);} \n            else if (answerRating == 3) {answererShare = ((address(this).balance) * 17/50);} \n            else if (answerRating == 2) {answererShare = ((address(this).balance) * 9/50);} \n            else if (answerRating == 1) {answererShare = ((address(this).balance) * 19/50);} \n            else if (answerRating == 0) {answererShare = ((address(this).balance) * 2/5);} \n            else if (answerRating == -1) {answererShare = ((address(this).balance) * 13/25);} \n            else if (answerRating == -2) {answererShare = ((address(this).balance) * 16/25);} \n            else if (answerRating == -3) {answererShare = ((address(this).balance) * 19/25);} \n            else if (answerRating == -4) {answererShare = ((address(this).balance) * 22/25);} \n            else                        {answererShare = (address(this).balance);} \n        }\n        \n        \n        answerIndex = int (index) ;\n        \n        answers[index].answerer.transfer(answererShare);\n        \n        if(rating > -1){\n            \n            answers[index].sumVoterRating += (uint(rating + 1) * answers[index].upVoteCount);\n            for (uint i=0; i<answers[index].upVoteCount; i++) {\n                \n                uint voterRating = owner.getVoterRating(answers[index].upVoters[i]);\n                voterRating += uint(rating + 1);\n                owner.setVoterRating(answers[index].upVoters[i], voterRating);\n                answers[index].upVoters[i].transfer( ( (address(this).balance) * voterRating ) / answers[index].sumVoterRating);\n                }    \n        }\n        \n        else {\n            for (uint i=0; i<answers[index].upVoteCount; i++) {\n        \n                uint voterRating = owner.getVoterRating(answers[index].upVoters[i]);\n                answers[index].upVoters[i].transfer( (  (address(this).balance) * voterRating) / answers[index].sumVoterRating);\n            }\n        }\n    }\n    \n    function upVote(uint index) public{\n        require(!isRetracted);\n        require((!upVoteBool[msg.sender]) && (index <= answerCount));\n        require((answers[index].upVoteCount) < target);\n        \n        if( owner.getVoterRating(msg.sender) == 0 ){\n            owner.setVoterRating(msg.sender, 100);\n        }\n        \n        answers[index].upVoteCount++;\n        upVoteBool[msg.sender] = true;\n        answers[index].upVoters.push(msg.sender);\n        answers[index].sumVoterRating += owner.getVoterRating(msg.sender);\n        \n        if(answers[index].upVoteCount == target){\n            completeTime = now;\n            isCompleted = true;\n        }\n    }\n\n    function retractQuestion() public{\n        require((!isRetracted) && (!isCompleted));\n        require( (answerIndex == -1) && (msg.sender == questioner) && ((now - startTime) > (4 * deadline)));\n        questioner.transfer(address(this).balance);\n        isRetracted  = true;\n    }\n    \n}",
  "sourcePath": "/Users/amanyadav/deQuora/contracts/Question.sol",
  "compiler": {
    "name": "solc",
    "version": "0.5.8+commit.23d335f2.Emscripten.clang"
  },
  "schemaVersion": "3.0.11",
  "updatedAt": "2019-08-04T03:21:51.189Z",
  "devdoc": {
    "methods": {}
  },
  "userdoc": {
    "methods": {}
  }
}